{"abi":[{"type":"function","name":"claimRefund","inputs":[{"name":"roastId","type":"uint256","internalType":"uint256"}],"outputs":[],"stateMutability":"nonpayable"},{"type":"function","name":"claimRoasterReward","inputs":[{"name":"roastId","type":"uint256","internalType":"uint256"}],"outputs":[],"stateMutability":"nonpayable"},{"type":"function","name":"claimVoterReward","inputs":[{"name":"roastId","type":"uint256","internalType":"uint256"}],"outputs":[],"stateMutability":"nonpayable"},{"type":"function","name":"createRoast","inputs":[{"name":"roastStake","type":"uint256","internalType":"uint256"},{"name":"voteStake","type":"uint256","internalType":"uint256"}],"outputs":[{"name":"roastId","type":"uint256","internalType":"uint256"}],"stateMutability":"payable"},{"type":"function","name":"currentState","inputs":[{"name":"roastId","type":"uint256","internalType":"uint256"}],"outputs":[{"name":"","type":"uint8","internalType":"enum RoastArena.RoastState"}],"stateMutability":"view"},{"type":"function","name":"getParticipants","inputs":[{"name":"roastId","type":"uint256","internalType":"uint256"}],"outputs":[{"name":"","type":"address[]","internalType":"address[]"}],"stateMutability":"view"},{"type":"function","name":"getRecentRoasts","inputs":[{"name":"count","type":"uint256","internalType":"uint256"}],"outputs":[{"name":"ids","type":"uint256[]","internalType":"uint256[]"}],"stateMutability":"view"},{"type":"function","name":"getRoast","inputs":[{"name":"roastId","type":"uint256","internalType":"uint256"}],"outputs":[{"name":"","type":"tuple","internalType":"struct RoastArena.Roast","components":[{"name":"id","type":"uint256","internalType":"uint256"},{"name":"creator","type":"address","internalType":"address"},{"name":"openUntil","type":"uint256","internalType":"uint256"},{"name":"voteUntil","type":"uint256","internalType":"uint256"},{"name":"roastStake","type":"uint256","internalType":"uint256"},{"name":"voteStake","type":"uint256","internalType":"uint256"},{"name":"state","type":"uint8","internalType":"enum RoastArena.RoastState"},{"name":"participantCount","type":"uint256","internalType":"uint256"},{"name":"totalVotes","type":"uint256","internalType":"uint256"},{"name":"roasterPool","type":"uint256","internalType":"uint256"},{"name":"voterPool","type":"uint256","internalType":"uint256"},{"name":"highestVotes","type":"uint256","internalType":"uint256"},{"name":"numWinners","type":"uint256","internalType":"uint256"},{"name":"winnerVoterCount","type":"uint256","internalType":"uint256"}]}],"stateMutability":"view"},{"type":"function","name":"getVoteCounts","inputs":[{"name":"roastId","type":"uint256","internalType":"uint256"},{"name":"candidates","type":"address[]","internalType":"address[]"}],"outputs":[{"name":"counts","type":"uint256[]","internalType":"uint256[]"}],"stateMutability":"view"},{"type":"function","name":"getWinners","inputs":[{"name":"roastId","type":"uint256","internalType":"uint256"}],"outputs":[{"name":"","type":"address[]","internalType":"address[]"}],"stateMutability":"view"},{"type":"function","name":"hasClaimedRoaster","inputs":[{"name":"","type":"uint256","internalType":"uint256"},{"name":"","type":"address","internalType":"address"}],"outputs":[{"name":"","type":"bool","internalType":"bool"}],"stateMutability":"view"},{"type":"function","name":"hasClaimedVoter","inputs":[{"name":"","type":"uint256","internalType":"uint256"},{"name":"","type":"address","internalType":"address"}],"outputs":[{"name":"","type":"bool","internalType":"bool"}],"stateMutability":"view"},{"type":"function","name":"hasJoined","inputs":[{"name":"","type":"uint256","internalType":"uint256"},{"name":"","type":"address","internalType":"address"}],"outputs":[{"name":"","type":"bool","internalType":"bool"}],"stateMutability":"view"},{"type":"function","name":"hasVoted","inputs":[{"name":"","type":"uint256","internalType":"uint256"},{"name":"","type":"address","internalType":"address"}],"outputs":[{"name":"","type":"bool","internalType":"bool"}],"stateMutability":"view"},{"type":"function","name":"isWinner","inputs":[{"name":"","type":"uint256","internalType":"uint256"},{"name":"","type":"address","internalType":"address"}],"outputs":[{"name":"","type":"bool","internalType":"bool"}],"stateMutability":"view"},{"type":"function","name":"joinRoast","inputs":[{"name":"roastId","type":"uint256","internalType":"uint256"}],"outputs":[],"stateMutability":"payable"},{"type":"function","name":"roastCounter","inputs":[],"outputs":[{"name":"","type":"uint256","internalType":"uint256"}],"stateMutability":"view"},{"type":"function","name":"roasts","inputs":[{"name":"","type":"uint256","internalType":"uint256"}],"outputs":[{"name":"id","type":"uint256","internalType":"uint256"},{"name":"creator","type":"address","internalType":"address"},{"name":"openUntil","type":"uint256","internalType":"uint256"},{"name":"voteUntil","type":"uint256","internalType":"uint256"},{"name":"roastStake","type":"uint256","internalType":"uint256"},{"name":"voteStake","type":"uint256","internalType":"uint256"},{"name":"state","type":"uint8","internalType":"enum RoastArena.RoastState"},{"name":"participantCount","type":"uint256","internalType":"uint256"},{"name":"totalVotes","type":"uint256","internalType":"uint256"},{"name":"roasterPool","type":"uint256","internalType":"uint256"},{"name":"voterPool","type":"uint256","internalType":"uint256"},{"name":"highestVotes","type":"uint256","internalType":"uint256"},{"name":"numWinners","type":"uint256","internalType":"uint256"},{"name":"winnerVoterCount","type":"uint256","internalType":"uint256"}],"stateMutability":"view"},{"type":"function","name":"settle","inputs":[{"name":"roastId","type":"uint256","internalType":"uint256"}],"outputs":[],"stateMutability":"nonpayable"},{"type":"function","name":"vote","inputs":[{"name":"roastId","type":"uint256","internalType":"uint256"},{"name":"candidate","type":"address","internalType":"address"}],"outputs":[],"stateMutability":"payable"},{"type":"function","name":"votedFor","inputs":[{"name":"","type":"uint256","internalType":"uint256"},{"name":"","type":"address","internalType":"address"}],"outputs":[{"name":"","type":"address","internalType":"address"}],"stateMutability":"view"},{"type":"function","name":"votesFor","inputs":[{"name":"","type":"uint256","internalType":"uint256"},{"name":"","type":"address","internalType":"address"}],"outputs":[{"name":"","type":"uint256","internalType":"uint256"}],"stateMutability":"view"},{"type":"event","name":"ParticipantJoined","inputs":[{"name":"roastId","type":"uint256","indexed":true,"internalType":"uint256"},{"name":"participant","type":"address","indexed":true,"internalType":"address"}],"anonymous":false},{"type":"event","name":"RefundClaimed","inputs":[{"name":"roastId","type":"uint256","indexed":true,"internalType":"uint256"},{"name":"claimer","type":"address","indexed":true,"internalType":"address"},{"name":"amount","type":"uint256","indexed":false,"internalType":"uint256"}],"anonymous":false},{"type":"event","name":"RewardClaimed","inputs":[{"name":"roastId","type":"uint256","indexed":true,"internalType":"uint256"},{"name":"claimer","type":"address","indexed":true,"internalType":"address"},{"name":"amount","type":"uint256","indexed":false,"internalType":"uint256"},{"name":"isRoasterReward","type":"bool","indexed":false,"internalType":"bool"}],"anonymous":false},{"type":"event","name":"RoastCancelled","inputs":[{"name":"roastId","type":"uint256","indexed":true,"internalType":"uint256"},{"name":"reason","type":"string","indexed":false,"internalType":"string"}],"anonymous":false},{"type":"event","name":"RoastCreated","inputs":[{"name":"roastId","type":"uint256","indexed":true,"internalType":"uint256"},{"name":"creator","type":"address","indexed":true,"internalType":"address"},{"name":"roastStake","type":"uint256","indexed":false,"internalType":"uint256"},{"name":"voteStake","type":"uint256","indexed":false,"internalType":"uint256"},{"name":"openUntil","type":"uint256","indexed":false,"internalType":"uint256"},{"name":"voteUntil","type":"uint256","indexed":false,"internalType":"uint256"}],"anonymous":false},{"type":"event","name":"RoastSettled","inputs":[{"name":"roastId","type":"uint256","indexed":true,"internalType":"uint256"},{"name":"numWinners","type":"uint256","indexed":false,"internalType":"uint256"},{"name":"roasterPool","type":"uint256","indexed":false,"internalType":"uint256"},{"name":"voterPool","type":"uint256","indexed":false,"internalType":"uint256"},{"name":"winnerVoterCount","type":"uint256","indexed":false,"internalType":"uint256"}],"anonymous":false},{"type":"event","name":"VoteCast","inputs":[{"name":"roastId","type":"uint256","indexed":true,"internalType":"uint256"},{"name":"voter","type":"address","indexed":true,"internalType":"address"},{"name":"candidate","type":"address","indexed":true,"internalType":"address"}],"anonymous":false},{"type":"error","name":"AlreadyClaimed","inputs":[]},{"type":"error","name":"AlreadyFinalized","inputs":[]},{"type":"error","name":"AlreadyJoined","inputs":[]},{"type":"error","name":"AlreadyVoted","inputs":[]},{"type":"error","name":"CandidateNotParticipant","inputs":[]},{"type":"error","name":"IncorrectStakeAmount","inputs":[]},{"type":"error","name":"JoinWindowClosed","inputs":[]},{"type":"error","name":"NotCancelled","inputs":[]},{"type":"error","name":"NotInVotingWindow","inputs":[]},{"type":"error","name":"NotParticipantOrVoter","inputs":[]},{"type":"error","name":"NotSettled","inputs":[]},{"type":"error","name":"NotWinner","inputs":[]},{"type":"error","name":"NothingToClaim","inputs":[]},{"type":"error","name":"RoastNotFound","inputs":[]},{"type":"error","name":"SelfVoteNotAllowed","inputs":[]},{"type":"error","name":"StakeTooLow","inputs":[]},{"type":"error","name":"VotedForLoser","inputs":[]},{"type":"error","name":"VotingNotEnded","inputs":[]}],"bytecode":{"object":"0x6080806040523461001657611847908161001b8239f35b5f80fdfe60a080604052600480361015610013575f80fd5b5f3560e01c91826302d947ef14610fbc575081631a70677214610f80578163239a518614610d7a57816328fa11b714610d435781632f1f911314610b4d5781633f4ce2d014610a7b5781634385963214610a3f5781634f1818571461098457816350fb99431461096857816355c777ed146108375781635b7baf641461068f57816368194719146106535781636b1426a4146105da5781638df82800146105a3578163a7f24b5714610508578163b57c7609146104d1578163bdd415af14610495578163c1e3bd3e1461040c578163c893b82f1461025b578163e100a5bf1461021f578163ec24f05c1461014d575063eefc089914610110575f80fd5b34610149576020610120366111b4565b5f9182526008835260408083206001600160a01b03928316845284529182902054915191168152f35b5f80fd5b34610149576040366003190112610149578035602480359267ffffffffffffffff9182851161014957366023860112156101495784820135928311610149576005913660248560051b88010111610149575f5485101561021057506101b183611719565b935f5b8481106101cd57604051806101c9888261123f565b0390f35b815f526020906007825260405f208482871b8a0101359260018060a01b038416809403610149576001935f525260405f20546102098289611357565b52016101b4565b60405163015f81eb60e21b8152fd5b346101495761022d366111b4565b905f52600b60205260405f209060018060a01b03165f52602052602060ff60405f2054166040519015158152f35b3461014957602090816003193601126101495780359160019283549261028460ff8516156112fc565b60ff19938416851785555f5482101561021057815f526002835260405f209060ff600683015416818110156103f9576002036103ea57825f526006845260405f20335f52845260ff60405f205416156103db575f838152600985526040808220600887528183203384528752818320546001600160a01b03168352865290205460ff16156103cc57825f52600b845260405f20335f52845260ff60405f2054166103bd575061035990825f52600b845260405f20335f52845260405f208686825416179055600d600a82015491015490611339565b91825f81156103b4575b5f80809381933390f1156103a9575f906040519384528301527f808221b8faa451766d78fb82ffe790d730e4d402831627a1aed6cf306362db0e60403393a38154169055005b6040513d5f823e3d90fd5b506108fc610363565b604051630c8d9eab60e31b8152fd5b60405163a280480560e01b8152fd5b6040516312d37ee560e31b8152fd5b60405163ba329a9b60e01b8152fd5b602182634e487b7160e01b5f525260245ffd5b34610149576020906020600319360112610149578035905f5482101561021057505f52600360205260405f20906040519081602084549182815201935f5260205f20915f905b828210610475576101c985610469818903826112da565b604051918291826111fb565b83546001600160a01b031686529485019460019384019390910190610452565b34610149576104a3366111b4565b905f52600960205260405f209060018060a01b03165f52602052602060ff60405f2054166040519015158152f35b34610149576020366003190112610149578035905f548210156102105760206104f98361174b565b61050660405180926111da565bf35b34610149576020366003190112610149575f54813581811161059c575b9061052f82611719565b925f19808301928084115f5b86811061055057604051806101c98a8261123f565b81610589578381840301868111610576579060019161056f828b611357565b520161053b565b601186634e487b7160e01b5f525260245ffd5b601185634e487b7160e01b5f525260245ffd5b5080610525565b346101495760203660031901126101495780355f548110156105ca576105c8906113c4565b005b5060405163015f81eb60e21b8152fd5b346101495760209060206003193601126101495780355f548110156105ca575f5260205260405f20906040519081602084549182815201935f5260205f20915f905b828210610633576101c985610469818903826112da565b83546001600160a01b03168652948501946001938401939091019061061c565b3461014957610661366111b4565b905f52600560205260405f209060018060a01b03165f52602052602060ff60405f2054166040519015158152f35b34610149576020806003193601126101495781359160019283549260ff926106b9848616156112fc565b60ff19948516861786555f5483101561021057825f526002825260405f20846006820154168281101561082457600303610814575f94845f526005845260405f20335f5284528060405f205416806107f6575b6107ce575b845f526006845260405f20335f5284528060405f20541690816107af575b5061077c575b5083156103db57505f808080863382f1156103a9577ff3f402280ef0a7905e124aa621b65eaeb2725c343e8b36d398ed78c29daf285c906040519384523393a38154169055005b9360056107a89295855f52600b855260405f20335f52855260405f20898982541617905501549061129c565b9286610735565b9050845f52600b845260405f20335f52845260405f205416158861072f565b9450835f52600a835260405f20335f52835260405f2087878254161790558181015494610711565b50845f52600a845260405f20335f5284528060405f2054161561070c565b50604051632069e45f60e11b8152fd5b602183634e487b7160e01b5f525260245ffd5b3461014957602090816003193601126101495780359160019283549261086060ff8516156112fc565b60ff19938416851785555f5482101561021057815f526002835260405f209060ff600683015416818110156103f9576002036103ea57825f526009845260405f20335f52845260ff60405f2054161561095957825f52600a845260405f20335f52845260ff60405f2054166103bd575061090090825f52600a845260405f20335f52845260405f208686825416179055600c600982015491015490611339565b91825f8115610950575b5f80809381933390f1156103a95784906040519384528301527f808221b8faa451766d78fb82ffe790d730e4d402831627a1aed6cf306362db0e60403393a38154169055005b506108fc61090a565b6040516330c6392160e11b8152fd5b34610149575f3660031901126101495760205f54604051908152f35b6020366003190112610149578035905f5482101561021057815f52600260205260405f206002810154421015610a2f57825f52600560205260405f20335f5260205260ff60405f205416610a205781015490813403610a1157506109e990338361179a565b33907f7dd8cb04159701bc1976c246434d7d96812782e7489e6c5c34db49a388fe9e805f80a3005b604051636981c65d60e11b8152fd5b50604051621d934160e11b8152fd5b5060405163d673d30960e01b8152fd5b3461014957610a4d366111b4565b905f52600660205260405f209060018060a01b03165f52602052602060ff60405f2054166040519015158152f35b346101495760203660031901126101495780355f52600260205260405f2090815491600160a01b60019003600182015416916002820154906003830154908301546005840154600685015460ff16600786015490600887015492600988015494600a89015496600b8a015498600c8b01549a600d01549b604051809e81526020015260408d015260608c015260808b015260a08a015260c08901610b1e916111da565b60e08801526101008701526101208601526101408501526101608401526101808301526101a08201526101c090f35b346101495760203660031901126101495780355f6101a0604051610b70816112a9565b8281528260208201528260408201528260608201528260808201528260a08201528260c08201528260e0820152826101008201528261012082015282610140820152826101608201528261018082015201525f548110156105ca575f52600260205260405f209060405190610be4826112a9565b8254825260018301546001600160a01b031660208301526002830154604083015260038301546060830152808301546080830152600583015460a0830152600683015460ff169080821015610d3057506101c092600d9160c0840152600781015460e084015260088101546101008401526009810154610120840152600a810154610140840152600b810154610160840152600c81015461018084015201546101a08201526101a0604051918051835260018060a01b03602082015116602084015260408101516040840152606081015160608401526080810151608084015260a081015160a0840152610ce060c082015160c08501906111da565b60e081015160e084015261010081015161010084015261012081015161012084015261014081015161014084015261016081015161016084015261018081015161018084015201516101a0820152f35b602190634e487b7160e01b5f525260245ffd5b3461014957610d51366111b4565b905f52600760205260405f209060018060a01b03165f52602052602060405f2054604051908152f35b604036600319011261014957602435813580158015610f78575b610f6757803403610f56575f5491610dab8361127a565b5f5560b4420193844211610f43576101a4420190818611610f43575f80808793604051948591610dda836112a9565b818352602083019033825260408401908d8252606085018a8152608086018d815260a08701918d835260c088019489865260e08901968a88526101008a01988b8a526101208b016080528b608051526101a06101408c019b8d8d5261016081019d8e5261018081019e8f52019d8e525f526002602052600160405f209e8f90518155019060018060a01b039051166001600160601b0360a01b8254161790555160028d01555160038c015551828b01555160058a01556006890191519080821015610d305750815460ff191660ff9190911617905551600787015551600886015560805151600986015551600a85015551600b84015551600c83015551600d9091015560209484927faeb13b996709656896e0f7c7d82f19d1453bfc09b32aef5c2a717e75696dbe4d92610f3890610f1387338861179a565b6040519384933398859094939260609260808301968352602083015260408201520152565b0390a3604051908152f35b601190634e487b7160e01b5f525260245ffd5b604051636981c65d60e11b81528390fd5b604051631cc3b37b60e01b81528390fd5b508115610d94565b3461014957610f8e366111b4565b905f52600a60205260405f209060018060a01b03165f52602052602060ff60405f2054166040519015158152f35b610fc5366111b4565b9290915f548310156111a85750815f5260206002815260405f20916002830154421061119957600383015442101561119957835f526006825260405f20335f52825260ff60405f20541661118a575f8481526005835260408082206001600160a01b0390971680835296845290205460ff161561117b5784331461116c5760058301543403610a1157600683019081549060ff82169080821015610d3057501561115c575b5050825f526006815260405f20335f52815260405f20600160ff19825416179055825f526008815260405f20335f52815260405f20846001600160601b0360a01b825416179055825f526007815260405f20845f52815260405f206110cf815461127a565b9055600882016110df815461127a565b9055600a82016110f034825461129c565b9055825f526007815260405f20845f528152600b60405f205492019182541061113e575b505033907fcfff1651bcea794952a516ce970ab17518a85210bd939aaeaac670a8d3e65ec75f80a4005b825f526007815260405f2090845f525260405f205490558280611114565b60ff19166001179055848061106a565b604051636a12f21960e11b8152fd5b60405163275e6a4b60e21b8152fd5b604051637c9a1cf960e01b8152fd5b6040516309126c9d60e41b8152fd5b63015f81eb60e21b8152fd5b604090600319011261014957600435906024356001600160a01b03811681036101495790565b9060048210156111e75752565b634e487b7160e01b5f52602160045260245ffd5b60209060206040818301928281528551809452019301915f5b828110611222575050505090565b83516001600160a01b031685529381019392810192600101611214565b60209060206040818301928281528551809452019301915f5b828110611266575050505090565b835185529381019392810192600101611258565b5f1981146112885760010190565b634e487b7160e01b5f52601160045260245ffd5b9190820180921161128857565b6101c0810190811067ffffffffffffffff8211176112c657604052565b634e487b7160e01b5f52604160045260245ffd5b90601f8019910116810190811067ffffffffffffffff8211176112c657604052565b1561130357565b60405162461bcd60e51b815260206004820152600e60248201526d1499595b9d1c985b9d0818d85b1b60921b6044820152606490fd5b8115611343570490565b634e487b7160e01b5f52601260045260245ffd5b805182101561136b5760209160051b010190565b634e487b7160e01b5f52603260045260245ffd5b805490680100000000000000008210156112c6576001820180825582101561136b575f5260205f20019060018060a01b03166001600160601b0360a01b825416179055565b805f52602060028152604090815f2091600383015442106116f157600683018054600492919060ff8116848110156116de57600281149081156116d3575b506116c457865f5260058552825f20335f52855260ff835f20541615806116a7575b61169857600190600790826007890154111561162f57506008870154156115d65794875f5260038152835f20845190818382549182815201915f52835f20905f5b8181106115ba575050509061147e8185949303826112da565b5f975f600b8b01955b61150c575b505050505084600c8701555492838502938585041485151715610f435750600d8501839055805460ff191660021790556009840154600a9094015490519283526020830193909352604082019290925260608101919091527f75a637592264d9f2ba93436e0c24795bdc2f5fb67cf227c0667768cc4b4da98090608090a2565b82518110156115b5575f8c81528285528890206001600160a01b0390816115338487611357565b51165f5285528c895f2054885414611550575b5050840184611487565b829b6115a48897969594889461159c8f8f90876115a9985f5260098d528b8561157c88865f2093611357565b51165f528d52825f208a60ff198254161790555f528b525f209289611357565b51169061137f565b61127a565b9a91929394508c611546565b61148c565b82546001600160a01b0316845292850192918601918601611465565b50507f500e2f2fd8539e9f056d1a4440a1a662a224016e39ccc3e6e6927ec337fb369394506060939250906c139bc81d9bdd195cc818d85cdd609a1b91600360ff19825416179055600d815193808552840152820152a2565b60ff1916600317909255505080518381526017938101939093527f4e6f7420656e6f756768207061727469636970616e747300000000000000000090830152507f500e2f2fd8539e9f056d1a4440a1a662a224016e39ccc3e6e6927ec337fb36939150606090a2565b505051637414d1eb60e01b8152fd5b50865f5260068552825f20335f52855260ff835f20541615611424565b50505163475a253560e01b8152fd5b60039150145f611402565b602185634e487b7160e01b5f525260245ffd5b51633fc30bd160e11b8152600490fd5b67ffffffffffffffff81116112c65760051b60200190565b9061172382611701565b61173060405191826112da565b8281528092611741601f1991611701565b0190602036910137565b5f52600260205260405f2060ff6006820154169060048210156111e757600282148015611790575b61178c57600291500154421061178857600190565b5f90565b5090565b5060038214611773565b906117d990825f52600560205260405f2060018060a01b0382165f5260205260405f20600160ff19825416179055825f52600360205260405f2061137f565b805f526002602052600760405f20016117f2815461127a565b90555f52600260205261180d600960405f200191825461129c565b905556fea2646970667358221220087c1c05a3f9159d85d7697a20117fcce9b7309d6ae345c0201b2f0a67742b9764736f6c63430008180033","linkReferences":{}},"methodIdentifiers":{"claimRefund(uint256)":"5b7baf64","claimRoasterReward(uint256)":"55c777ed","claimVoterReward(uint256)":"c893b82f","createRoast(uint256,uint256)":"239a5186","currentState(uint256)":"b57c7609","getParticipants(uint256)":"c1e3bd3e","getRecentRoasts(uint256)":"a7f24b57","getRoast(uint256)":"2f1f9113","getVoteCounts(uint256,address[])":"ec24f05c","getWinners(uint256)":"6b1426a4","hasClaimedRoaster(uint256,address)":"1a706772","hasClaimedVoter(uint256,address)":"e100a5bf","hasJoined(uint256,address)":"68194719","hasVoted(uint256,address)":"43859632","isWinner(uint256,address)":"bdd415af","joinRoast(uint256)":"4f181857","roastCounter()":"50fb9943","roasts(uint256)":"3f4ce2d0","settle(uint256)":"8df82800","vote(uint256,address)":"02d947ef","votedFor(uint256,address)":"eefc0899","votesFor(uint256,address)":"28fa11b7"},"id":19}